:0300000002170ADA
:0C170A00787FE4F6D8FD758122021751AB
:10181B00040103020201000002020203040102019F
:10182B000403030402000202030102030202020486
:10183B00020400030402030100030103030002007E
:10184B000403030303030401010403000100030267
:10185B000302030304040103000003010303030059
:10186B000303040102040103000103040403020344
:09187B00010203034C4F56452104
:101884004500D60A233C556E4100D500410089032A
:1018940042008A000042008C000042008E00004298
:1018A4000090000042009200004100290041009B8A
:1018B400004100460050007901FF01FF005001FF84
:1018C40001FF01FF01FF01FF5000050000040000BB
:0B18D400000400000004000000000001
:081BD5007F107E93DEFEDFFCB1
:011BDD0022E5
:041B36007FC87E00E6
:101B3A00AD07AC06ED1DAE0470011C4E6005121B0C
:041B4A00D580F1222F
:101B100075C501D3ED94FFEC9400400AEF04F5C3C2
:101B2000ED04F5C480068FC3AF058FC475C65A7522
:061B3000C6A500AFC222B1
:10000E0075C502AE038EC2D3ED94FFEC9400400A88
:10001E00EF04F5C3ED04F5C480068FC3AF058FC49E
:08002E0075C65A75C6A5002233
:101B900075C5038FC3E4F5C475C65A75C6A50000A4
:011BA0002222
:101AA800AA0775C783AF02121B907B88E4FDFC125E
:101AB800000EAF02121B10EF64887017AF02121BE2
:101AC800907B5512000EAF02121B10EF6455700385
:061AD8007F01227F0022C5
:100C6800E49000DCF0A3F075C783FEEEC39428740B
:100C78008094805030EEFD7C00E4FF121B10744716
:100C88002EF582E43400F583EFF074472EF582E404
:100C98003400F583E0FD9000DDE02DF09000DCE00D
:100CA8003CF00E80C67D287C00E4FF121B10AB07C9
:100CB800EB7B00FA0DE4FF121B10EB2FFBE43AFA72
:100CC800900047E064AB700C9000DCE06A7003A30E
:100CD800E06B6005D204020EC1900048E09000D697
:100CE800F0900049E09000D7F090004AE09000D8DA
:100CF800F090004BE09000D9F090004CE09000DAC2
:100D0800F090004DE09000A0F090004EE09000A11F
:100D1800F090004FE09000A2F0900050E09000A307
:100D2800F0900051E09000A4F0900052E0FF900095
:100D380079E4F0A3EFF0E0F8E4F0E8900079F090BF
:100D48000053E0FF90007AE02FF0900079E0340043
:100D5800F0900054E0FF90007BE4F0A3EFF0E0F89F
:100D6800E4F0E890007BF0900055E0FF90007CE014
:100D78002FF090007BE03400F0900056E0FF9000E8
:100D88007DE4F0A3EFF0E0F8E4F0E890007DF09067
:100D98000057E0FF90007EE02FF090007DE03400E7
:100DA800F0900058E0FF90007FE4F0A3EFF0E0F847
:100DB800E4F0E890007FF0900059E0FF900080E0B8
:100DC8002FF090007FE03400F090005AE0FF900090
:100DD80081E4F0A3EFF0E0F8E4F0E8900081F0900F
:100DE800005BE0FF900082E02FF0900081E034008B
:100DF800F090005CE0FF900083E4F0A3EFF0E0F8EF
:100E0800E4F0E8900083F090005DE0FF900084E05B
:100E18002FF0900083E03400F090005EE0FF900037
:100E280085E4F0A3EFF0E0F8E4F0E8900085F090B6
:100E3800005FE0FF900086E02FF0900085E034002E
:100E4800F0900060E0FF900087E4F0A3EFF0E0F896
:100E5800E4F0E8900087F0900061E0FF900088E0FF
:100E68002FF0900087E03400F0900062E024FF92B9
:100E78000BA3E024FF9200A3E024FF9201A3E02447
:100E8800FF9203A3E024FF920AA3E024FF920CA39D
:100E9800E024FF920DA3E024FF920EA3E024FF922A
:100EA8000FA3E024FF9210A3E024FF9211A3E024F3
:0C0EB800FF9212A3E024FF9207E4F5C7AC
:010EC400220B
:10133F0090004774ABF09000D6E0900048F090001A
:10134F00D7E0900049F09000D8E090004AF090006C
:10135F00D9E090004BF09000DAE090004CF0900054
:10136F00A0E090004DF09000A1E090004EF09000B2
:10137F00A2E090004FF09000A3E0900050F090009A
:10138F00A4E0900051F0900079E0FCA3E0FDEC9018
:10139F000052F0A3EDF090007BE0FCA3E0FDEC9099
:1013AF000054F0A3EDF090007DE0FCA3E0FDEC9085
:1013BF000056F0A3EDF090007FE0FCA3E0FDEC9071
:1013CF000058F0A3EDF0900081E0FCA3E0FDEC905D
:1013DF00005AF0A3EDF0900083E0FCA3E0FDEC9049
:1013EF00005CF0A3EDF0900085E0FCA3E0FDEC9035
:1013FF00005EF0A3EDF0900087E0FCA3E0FDEC9021
:10140F000060F0A3EDF0A20BE433A3F0A200E433ED
:10141F00A3F0A201E433A3F0A203E433A3F0A20AE2
:10142F00E433A3F0A20CE433A3F0A20DE433A3F052
:10143F00A20EE433A3F0A20FE433A3F0A210E4331F
:10144F00A3F0A211E433A3F0A212E433A3F0A20796
:10145F00E433A3F0E4FDFCFAEAC39428748094808B
:10146F00501374472AF582E43400F583E02DFDE430
:10147F003CFC0A80E3EC90006FF0A3EDF075C7839E
:10148F00E4FF121B90E4FAEAC3942A74809480500C
:10149F0017EAFD7C002447F582E43400F583E0FB76
:0B14AF00E4FF12000E0A80DFE4F5C726
:0114BA00220F
:1018E00012190F121103FF12190F90000112111C8F
:1018F000FF12190F90000212111CFF12190F900015
:0F1900000312111CFF12190F90000412111CFF8B
:10190F00E4FEEEC39408748094805017EF339296E0
:10191F0000D297EF25E0FFA295E4334FFF00C29767
:03192F000E80DF48
:011932002292
:061B6600C2CD7D407F07A7
:101B6C00C2CCEF2420FF12190FAF0512190FD2CCE3
:011B7C002246
:081A36007B017A0079CA7D0BE7
:0B1A3E009000DDEBF0A3EAF0A3E9F05C
:101A4900C2CC7FA012190FE4FCECC39D5016900084
:101A5900DDE0FBA3E0FAA3E0F98C8275830012199B
:061A69000B0C80E5D2CC5D
:011A6F002254
:0819BB007B017A0079A57D0B88
:0B19C3009000DDEBF0A3EAF0A3E9F0D8
:1019CE00C2CC7F6112190FE4FCECC39D501CE4FFE6
:1019DE0012190F9000DDE0FBA3E0FAA3E0F98C8270
:0C19EE00758300EF1211490C80DFD2CC91
:0119FA0022CA
:0A005900C2CC7F301218E0D2CC2296
:0E1B4E007F2112004D7BFF7A18797F1200591B
:0A1B5C00C2CC7F2A1218E0D2CC227E
:0C1BB100C2CD7D3BE4FF121B6CD2CD22A4
:0C1BBD00C2CD7D0AE4FF121B6CD2CD22C9
:101ADE00C2CDEFFB7A00640370047D27801CEB649B
:101AEE00024A70047D258012EFFB7A0064017004B7
:101AFE007D238006EB4A70077D217F06121B6CD278
:021B0E00CD22E6
:0C1BC900C2CDAD077F11121B6CD2CD22E3
:0F003E00900044E024D6F582E43400F583E0FF1F
:0C004D00C2CDAD077F05121B6CD2CD2286
:101A7000C2CDC297E4FD7F01121B6C0D7F02121BC9
:101A80006C1D7F04121B6C121BB17F4212004D9023
:101A90000089E0FF121ADE7F0B121BC97B017A005E
:081AA00079A0121B5C02005941
:10166D00E49000DCF0C2CDC297C2CC7F2012190FDE
:10167D00EF640E60037401F07F0A12190FD2CCC211
:10168D00CCE4FF12190FE4FF12190FEF640A600783
:10169D009000D5E04402F0D2CCE4FD7F01121B6C2A
:1016AD007F04121B6C0D7F11121B6C7B017A00796C
:1016BD00CA121A3ED2CD7F047E00121B3AC2CCE470
:1016CD00FF12190FEF642E60079000D5E04404F06F
:1016DD00D2CC3094079000D5E04418F0D2CD9000D4
:1016ED00DCE060129000D5E0FFD39401748094800B
:0D16FD004004EF4401F07D207F07021B6CCC
:10159800E4FF121ADE121B4E2094FD1219BB121B17
:1015A80066D2CD9000A5E064A0704EA3E09000D66E
:1015B800F09000A7E09000D7F09000A8E09000D845
:1015C800F09000A9E09000D9F09000AAE09000DA2D
:1015D800F09000ABE09000A0F09000ACE09000A18B
:1015E800F09000ADE09000A2F09000AEE09000A373
:1015F800F09000AFE09000A4F09000CA744FF0A300
:10160800744BF0D205300549121BBD121B4E121A3D
:1016180036121BD5121BB19000D6E0FF12004D7B8D
:10162800017A0079A0120059121B5C121BD5209474
:101638000C1219BB121B66D2CDC20580C89000DC03
:10164800E004F0E0D394647480948040DEE4F08099
:10165800B412133F7B017A0079A0121B5C12005967
:051668007F03021ADE01
:10179600F5158E149000AEE0FF1313543F2515F592
:1017A60015E43514F514EF5403751600F51775177F
:1017B60000F516A3E02517F517E43516F516E4FB34
:0917C600FA7DFF7C03AF09AE08B7
:1017CF009000DCEEF0A3EFF0A3ECF0A3EDF09000AF
:1017DF00DEE0FEA3E0FFD39000DDE09FEE6480F833
:1017EF009000DCE064809840089000DCEEF0A3EFFE
:1017FF00F0C39000DDE09BEA6480F89000DCE064C9
:0C180F0080985007AF03EAF0A3EFF0222E
:100EC500900006E025E0FE900005E033900017F065
:100ED500A3CEF0900008E025E0FE900007E03390F7
:100EE5000019F0A3CEF090000AE025E0FE9000097D
:100EF500E03390001BF0A3CEF090000CE025E0FE5F
:100F050090000BE03390001DF0A3CEF090000EE0B2
:100F150025E0FE90000DE03390001FF0A3CEF09089
:100F25000010E025E0FE90000FE033900021F0A3D3
:100F3500CEF0900012E025E0FE900011E033900025
:100F450023F0A3CEF0900014E025E0FE900013E01E
:100F550033900025F0A3CEF0900017E0FEA3E090BB
:100F6500002CF0EEA3F0900019E0FCA3E0FDAE0428
:100F75007803C333CE33CED8F9FF90002DE02FF0A0
:100F8500AE04ED7805CEC313CE13D8F990002EF03C
:100F950090001BE0FCA3E0FDAE047806C333CE331E
:100FA500CED8F9FF90002EE02FF0AE04ED7802CEFA
:100FB500C313CE13D8F990002FF090001BE0131344
:100FC500543F900030F090001DE0FCA3E0FD25E0CB
:100FD500FF900030E02FF0AE04ED7807CEC313CEBE
:100FE50013D8F9900031F090001FE0FCA3E0FDC498
:100FF500F8540FC868FF900031E02FF0ECC4F854A6
:10100500F0C8EDC4540F48A3F0900021E0FCA3E024
:10101500FDAE047807C333CE33CED8F9FF90003246
:10102500E02FF0ECC313ED13A3F0900021E0C31300
:10103500900034F0900023E0FCA3E0FDAE047802BC
:10104500C333CE33CED8F9FF900034E02FF0AE0491
:10105500ED7806CEC313CE13D8F9900035F0900085
:1010650025E0FCA3E0FDAE047805C333CE33CED82E
:10107500F9FF900035E02FF0AE04ED7803CEC313F1
:10108500CE13D8F9FF900036F09000B0740FF090B1
:10109500002CE09000B1F090002DE09000B2F090AF
:1010A500002EE09000B3F090002FE09000B4F09097
:1010B5000030E09000B5F0900031E09000B6F0907F
:1010C5000032E09000B7F0900033E09000B8F09067
:1010D5000034E09000B9F0900035E09000BAF0A33C
:1010E500EFF0E4A3F0A3F0A3F0A3F0A3F0A3F0A323
:0E10F500F0A3F0A3F0A3F0A3F0A3F0A3F02269
:1009FC0090008BE004F0700690008AE004F0D39035
:100A0C00008BE0944D90008AE0940140127401F048
:100A1C00A3744DF0E4900029F09000467402F0901D
:100A2C00008DE004F0700690008CE004F0D3900090
:100A3C008DE0944D90008CE094014011E4F0A3F013
:100A4C0090009BE0900029F0E490009BF090008FC8
:100A5C00E004F0700690008EE004F0D390008FE07C
:100A6C00949A90008EE094025003020AFB7402F0F8
:100A7C00A3749AF0900079E0FFA3E0900005CFF00A
:100A8C00A3EFF090007BE0FFA3E0900007CFF0A372
:100A9C00EFF090007DE0FFA3E0900009CFF0A3EF12
:100AAC00F090007FE0FFA3E090000BCFF0A3EFF0FD
:100ABC00900081E0FFA3E090000DCFF0A3EFF09049
:100ACC000083E0FFA3E090000FCFF0A3EFF09000C5
:100ADC0085E0FFA3E0900011CFF0A3EFF09000872A
:100AEC00E0FFA3E0900013CFF0A3EFF0120EC5309F
:100AFC000926900091E004F07006900090E004F05C
:100B0C00D3900091E0944D900090E094014009E462
:100B1C00F0A3F0C20912133F900046E0FF7E006480
:100B2C00017029D290900093E004F070069000922E
:100B3C00E004F0D3900093E0940A900092E09400CB
:100B4C004016E4F0A3F0900046F0800CEF64024EE7
:100B5C007004D2908002C2909000C9E004F020137F
:100B6C0012E0D39407748094804031C206D213C231
:100B7C001480292014139000C9E0D3940E7480942F
:100B8C00804019C206D21480139000C9E0D3941689
:100B9C00748094804006E4F0C206C2139000DBE03F
:100BAC0004F0E064017057AFBDEFFFADBEED9000F7
:100BBC0094CFF0A3EFF0E47B02FAF9F8C0007818B8
:100BCC0012131AD000121288A804A905AA06AB07A2
:100BDC00900094E0C313FEA3E013FFE4FCFDEB2FA5
:100BEC00FFEA3EFEED39FDEC38FC7818121333E4C5
:100BFC00F5BDF5BE90FE317408F075BCC3229000B3
:100C0C00DBE064027055F0AFBDEFFFADBEED9000C0
:100C1C0096CFF0A3EFF0E47B02FAF9F8C000781C51
:100C2C0012131AD000121288A804A905AA06AB0741
:100C3C00900096E0C313FEA3E013FFE4FCFDEB2F42
:100C4C00FFEA3EFEED39FDEC38FC781C121333E460
:0C0C5C00F5BDF5BE90FE31F075BCCF2256
:101BA1007598D0438E01438E0475D7E275D6FF2216
:101B7D00AB07EB600DD290121B36C290121B361BB9
:031B8D0080F022C3
:1014BB0075B2FFE4F5B1759201759108F5CAF5C9DE
:1014CB00C2B7C2B6C2B5C2B4C2B3C2B2C2B1C2B065
:1014DB00D2907F587E02121B3AC290D292D2917553
:1014EB00F50C121BD520920C7F327E00121B3A207A
:1014FB009202D2027F02121AA8EF70097FF47E01CA
:10150B00121B3A80EF120C68900079E0FEA3E0FF0B
:10151B00E4FBFA7DFF7C031217CF90007BE0FEA368
:10152B00E0FF1217CF90007DE0FEA3E0FF1217CF74
:10153B0090007FE0FEA3E0FF1217CF900081E0FE4A
:10154B00A3E0FF1217CF900083E0FEA3E0FF12177A
:10155B00CF900085E0FEA3E0FF1217CF900087E04D
:10156B00FEA3E0FF1217CF12166D9000D5E0600EB0
:10157B00C2907FE87E03121B3A7F05121B7D121A65
:0D158B0070300202D20430040312159822C1
:10006600121B361214BB900098E4F0A3F0A374EFB1
:10007600F075BC8090FEA8743FF075DE2F75A21057
:1000860075F40375F30330000375DC423001037524
:10009600DB4275B80275A88230070D121BA175D90F
:1000A60001E4F5AFD2B1800C75D74775D6F475AFBC
:1000B60004E4F5D9E4F589438E1075D8409000D64E
:1000C600E0FF12004D2094FDD28CD206A206829447
:1000D60040FA2006030205B7C213C214E4900004D6
:1000E600F090009BE004F0E490008AF0A3F090000A
:1000F6008EF0A3F09000C9F0900046E06002E4F0B4
:100106001219BB121B66D2CD121BBD900029E090BE
:1001160000CAF0900098E0FBA3E0FAA3E0F9121100
:10012600D2FFAEF0E4FCFDFB7A04F9F81211FD787B
:1001360018121326121288900002EEF0A3EFF07C3C
:10014600007D0A12117D900002EEF0A3EFF0900000
:1001560002E0FCA3E0FDEC9000CBF0A3EDF0781CF0
:1001660012131AAB07AA06A905A804900002E0FE1E
:10017600A3E0FFE4FCFD1211FDE47B03FAF9F8129B
:1001860011FDE4FB7A04F9F8121977900000EEF0FD
:10019600A3EFF0900000E0FCA3E0FDEC9000CDF0B2
:1001A600A3EDF0121A36121BD5121BB130080EC27F
:1001B60008900045E090181B93900044F09000448E
:1001C600E004F0E0D39404748094804002E4F012DA
:1001D600003E9000A5E0FF7E0064A260030202AC30
:1001E60090004604F09000A6E0FD30E704D20B80B4
:1001F60002C20BED30E604D2078002C20730070BBD
:10020600121BA175D901E4F5AF800F75D74775D6D6
:10021600F4538EFB75AF04E4F5D99000A6E0FD30EB
:10022600E307D20075DC428005C200E4F5DCED3060
:10023600E207D20175DB428005C201E4F5DBED3051
:10024600E107D20375DA428005C203E4F5DA9000CD
:10025600A7E0FD30E704D20A8002C20AED30E604C8
:10026600D20C8002C20CED30E504D20D8002C20D24
:10027600ED30E404D20E8002C20EED30E304D20F5C
:100286008002C20FED30E204D2108002C210ED30BF
:10029600E104D2118002C211ED30E005D21202044F
:1002A6002CC21202042CEF64A04E600302043890A4
:1002B600004604F0D2909000A6E0750800F509AE5D
:1002C60008E5097802C333CE33CED8F9F5098E088E
:1002D6009000A7E0FFC4131354032509F509E4357C
:1002E60008F508EF543F750A00F50BC4F8540FC81B
:1002F60068F50BE50AC454F048F50AA3E0FFC454B8
:100306000F250BF50BE4350AF50AEF540F750C00B3
:10031600F50DAE0C7806C333CE33CED8F9F50D8E77
:100326000C9000A9E0FF1313543F250DF50DE4359D
:100336000CF50CEF5403750E00F50F750F00F50E56
:10034600A3E0250FF50FE4350EF50EA3E0751000BA
:10035600F511AE10E5117802C333CE33CED8F9F5D8
:10036600118E109000ACE0FFC4131354032511F551
:1003760011E43510F510EF543F751200F513C4F86B
:10038600540FC868F513E512C454F048F512A3E0FB
:10039600FFC4540F2513F513E43512F512EF540F6D
:1003A600751400F515AE147806C333CE33CED8F9DE
:1003B600121796AF0BAE0A1217CFAF0DAE0C12176F
:1003C600CFAF0FAE0E1217CFAF11AE101217CFAFC1
:1003D60013AE121217CFAF15AE141217CFAF17AE5A
:1003E600161217CF900079E508F0A3E509F0A3E50A
:1003F6000AF0A3E50BF0A3E50CF0A3E50DF0A3E5E9
:100406000EF0A3E50FF0A3E510F0A3E511F0A3E5C8
:1004160012F0A3E513F0A3E514F0A3E515F0A3E5A8
:1004260016F0A3E517F0D209E4900090F0A3F002CD
:1004360000D29000A5E064A160030200D2A3E0759B
:100446000800F509AE08E5097802C333CE33CED8E5
:10045600F9F5098E089000A7E0FFC413135403258D
:1004660009F509E43508F508EF543F750A00F50B60
:10047600C4F8540FC868F50BE50AC454F048F50AE9
:10048600A3E0FFC4540F250BF50BE4350AF50AEF7C
:10049600540F750C00F50DAE0C7806C333CE33CE73
:1004A600D8F9F50D8E0C9000A9E0FF1313543F25E3
:1004B6000DF50DE4350CF50CEF5403750E00F50F34
:1004C600750F00F50EA3E0250FF50FE4350EF50EBA
:1004D600A3E0751000F511AE10E5117802C333CE16
:1004E60033CED8F9F5118E109000ACE0FFC413138B
:1004F60054032511F511E43510F510EF543F75122C
:1005060000F513C4F8540FC868F513E512C454F087
:1005160048F512A3E0FFC4540F2513F513E4351272
:10052600F512EF540F751400F515AE147806C333A3
:10053600CE33CED8F9121796AF0BAE0A1217CFAF3D
:100546000DAE0C1217CFAF0FAE0E1217CFAF11AE06
:10055600101217CFAF13AE121217CFAF15AE14127B
:1005660017CFAF17AE161217CF900005E508F0A308
:10057600E509F0A3E50AF0A3E50BF0A3E50CF0A36B
:10058600E50DF0A3E50EF0A3E50FF0A3E510F0A34B
:10059600E511F0A3E512F0A3E513F0A3E514F0A32B
:1005A600E515F0A3E516F0A3E517F0120EC5020057
:1005B600D2900004E004F0E0D39405748094804067
:1005C60002D208300822900045E004F0E0D394639C
:1005D600748094804002E4F0900045E090181B93EC
:1005E600120042D2060200D2900044E004F0E0D3AA
:1005F6009404748094804002E4F012003ED2060215
:0206060000D220
:03000B00020608E2
:10060800C0E0C0F0C083C082C0D075D000C000C0B8
:0706180004C005C006C00785
:10061F00200B0302073E900028E004F0E014B41210
:10062F000040030209E790064375F003A4C5832534
:10063F00F0C58373020679020686020689020696C2
:10064F000206980206A50206A70206B40206B60223
:10065F0006C30206C50206D20206D40206E102064E
:10066F00E302071202072302072ED2B7758A7075AD
:10067F008CFE9000058068020712D2B7758A7075DC
:10068F008CFE9000078058807AD2B7758A70758C6F
:10069F00FE9000098049806BD2B7758A70758CFE09
:1006AF0090000B803A805CD2B7758A70758CFE9083
:1006BF00000D802B804DD2B7758A70758CFE90001F
:1006CF000F801C803ED2B7758A70758CFE9000111A
:1006DF00800D802FD2B7758A70758CFE900013E055
:1006EF00FEA3E0FFC374A79F9000E1F074FD9E90FE
:1006FF0000E0F0E0FEA3E090002AF0EE900027F07B
:10070F000209E7C2B790002AE0F58A900027E0F5CA
:10071F008C0209E7D2B7758A70758CFE0209E7C2A1
:10072F00B7758AF0758CD8900028E4F00209E7308D
:10073F00074AD2B1900016E0FFD3941874809480CA
:10074F004004E4F0801C309902C29974B02FF582F6
:10075F00E43400F583E0A2D0929BF599900016E067
:10076F0004F0900016E064197009758AF0758CD842
:10077F000209E7758A88758CFF0209E7900015E07A
:10078F0004F0E014B4100040030209E79007A975C4
:10079F00F003A4C58325F0C583730207D902082986
:1007AF000208370208840208920208B10208BC024C
:1007BF0008DB0208E502090402090E02092C0209EE
:1007CF003602095402097B0209B430002C9000054F
:1007DF00E0FEA3E0FFC39464EE9400500575F403AC
:1007EF00800375F400EF7802CEC313CE13D8F9FF50
:1007FF00C374FF9FF5FC020997300A19C3900006D6
:10080F00E094F4900005E094015005C2B7020997F7
:10081F00D2B7020997D2B7020997200005200A0222
:10082F00C2B790000702095C30012B900007E0FE71
:10083F00A3E0FFC39464EE9400500575F3038003A7
:10084F0075F300EF7802CEC313CE13D8F9FFC3743C
:10085F00FF9FF5FB801C300C17C3900008E094F449
:10086F00900007E094015004C2B68006D2B6800211
:10087F00D2B6020997200105200C02C2B6900009DA
:10088F0002095C300D17C390000AE094F490000940
:10089F00E094015004C2B58006D2B58002D2B502F1
:1008AF000997200D02C2B590000B02095C300E179C
:1008BF00C390000CE094F490000BE094015004C23C
:1008CF00B48006D2B48002D2B4020997200E02C2BD
:1008DF00B490000D8077300F17C390000EE094F4A2
:1008EF0090000DE094015004C2B38006D2B3800291
:1008FF00D2B3020997200F02C2B390000F804E307F
:10090F001017C3900010E094F490000FE094015082
:10091F0004C2B28006D2B28002D2B2806B20100223
:10092F00C2B29000118026301117C3900012E094CC
:10093F00F4900011E094015004C2B18006D2B1804E
:10094F0002D2B18043201102C2B1900013E0FEA386
:10095F00E0FF7C007D1B12116B7D1412117DC3749F
:10096F00D59FFF74FC9EFE90009C802E301217C303
:10097F00900014E094F4900013E094015004C2B07E
:10098F008006D2B08002D2B090009CE0FEA3E0FFC0
:10099F00C374589FFF74F69EFEA3F0A3EFF0F58A81
:1009AF00EEF58C8033201202C2B0900005E0FEA35A
:1009BF00E0FF7C007D1B12116B7D1412117DC3743F
:1009CF00D59FFF74FC9EFE90009CF0A3EFF0F58A7C
:0809DF00EEF58C900015E4F028
:1009E700D007D006D005D004D000D0D0D082D08395
:0509F700D0F0D0E03259
:03003B0002193374
:10193300C0E0C0F0C083C082C0D075D000C000C07A
:1019430001C002C003C004C005C006C00775E94852
:1019530075F9F475D8401209FCD007D006D005D02C
:1019630004D003D002D001D000D0D0D082D083D015
:04197300F0D0E0329E
:030063000219FB84
:1019FB00C0E0C0F0C083C082C0D075D000C000C0B2
:101A0B0001C002C003C004C005C006C0071209FC18
:101A1B00D007D006D005D004D003D002D001D0001F
:0B1A2B00D0D0D082D083D0F0D0E032C9
:10171600020066E493A3F8E493A34003F68001F283
:1017260008DFF48029E493A3F85407240CC8C333D4
:10173600C4540F4420C8834004F456800146F6DFA3
:10174600E4800B0102040810204080901884E47E97
:10175600019360BCA3FF543F30E509541FFEE49398
:10176600A360010ECF54C025E060A840B8E493A35F
:10177600FAE493A3F8E493A3C8C582C8CAC583CA8A
:10178600F0A3C8C582C8CAC583CADFE9DEE780BE42
:0118DF000008
:10110300BB010689828A83E0225002E722BBFE02EA
:09111300E32289828A83E493221D
:10111C00BB010CE58229F582E5833AF583E0225088
:10112C0006E92582F8E622BBFE06E92582F8E222D2
:0D113C00E58229F582E5833AF583E49322EC
:10114900F8BB010DE58229F582E5833AF583E8F0DC
:10115900225006E92582C8F622BBFE05E92582C888
:02116900F22270
:10116B00EF8DF0A4A8F0CF8CF0A428CE8DF0A42E98
:02117B00FE2252
:10117D00BC000BBE0029EF8DF084FFADF022E4CC56
:10118D00F875F008EF2FFFEE33FEEC33FCEE9DEC1F
:10119D00984005FCEE9DFE0FD5F0E9E4CEFD22ED65
:1011AD00F8F5F0EE8420D21CFEADF075F008EF2FAF
:1011BD00FFED33FD4007985006D5F0F222C398FDA0
:0511CD000FD5F0EA223D
:1011D200BB010A89828A83E0F5F0A3E022500687E8
:1011E200F009E71922BBFE07E3F5F009E3192289AA
:0B11F200828A83E493F5F074019322DD
:1011FD00E88FF0A4CC8BF0A42CFCE98EF0A42CFC91
:10120D008AF0EDA42CFCEA8EF0A4CDA8F08BF0A40E
:10121D002DCC3825F0FDE98FF0A42CCD35F0FCEB6D
:10122D008EF0A4FEA9F0EB8FF0A4CFC5F02ECD3932
:0F123D00FEE43CFCEAA42DCE35F0FDE43CFC229F
:10124C0075F008758200EF2FFFEE33FECD33CDCC59
:10125C0033CCC58233C5829BED9AEC99E5829840DC
:10126C000CF582EE9BFEED9AFDEC99FC0FD5F0D6B9
:10127C00E4CEFBE4CDFAE4CCF9A88222B800C1B9E3
:10128C000059BA002DEC8BF084CFCECDFCE5F0CB21
:10129C00F97818EF2FFFEE33FEED33FDEC33FCEB5A
:1012AC0033FB10D703994004EB99FB0FD8E5E4F915
:1012BC00FA227818EF2FFFEE33FEED33FDEC33FC02
:1012CC00C933C910D7059BE99A4007EC9BFCE99AF6
:1012DC00F90FD8E0E4C9FAE4CCFB2275F010EF2F3B
:1012EC00FFEE33FEED33FDCC33CCC833C810D7073B
:1012FC009BEC9AE899400AED9BFDEC9AFCE899F876
:0E130C000FD5F0DAE4CDFBE4CCFAE4C8F92208
:10197700C2D5E830E70FB2D5E4C39BFBE49AFAE49B
:1019870099F9E498F8EC30E717B2D51219AD1212AD
:1019970088E4C39BFBE49AFAE499F9E498F8800396
:1019A70012128830D50DE4C39FFFE49EFEE49DFD2F
:0419B700E49CFC228E
:0C131A00E6FC08E6FD08E6FE08E6FF22FF
:0D132600E6FB08E6F908E6FA08E6CBF82237
:0C133300ECF608EDF608EEF608EFF622E6
:00000001FF
